:020000040800F2
:1000000000500020B52A0008F9290008052A000838
:100010000B2A0008112A0008172A00080000000017
:100020000000000000000000000000001D2A000881
:10003000292A000800000000352A0008412A00088B
:10004000FD2A0008FD2A0008FD2A0008FD2A0008F4
:10005000FD2A0008FD2A0008FD2A0008FD2A0008E4
:10006000FD2A0008FD2A0008FD2A0008FD2A0008D4
:10007000FD2A0008FD2A0008FD2A0008FD2A0008C4
:10008000FD2A0008FD2A0008FD2A0008FD2A0008B4
:10009000FD2A0008FD2A0008FD2A0008FD2A0008A4
:1000A000FD2A0008FD2A0008FD2A0008FD2A000894
:1000B000FD2A0008FD2A0008FD2A0008FD2A000884
:1000C000FD2A0008FD2A0008FD2A0008FD2A000874
:1000D000FD2A0008FD2A0008FD2A0008FD2A000864
:1000E000FD2A0008FD2A0008FD2A00080000000083
:1000F0000000000000000000000000000000000000
:0C01000000000000000000005FF808F1A3
:10010C0010B5054C237833B9044B13B10448AFF345
:10011C0000800123237010BD0C00002000000000A3
:10012C00582B000808B5034B1BB103490348AFF328
:10013C00008008BD0000000010000020582B0008B3
:10014C0080B500AF084A084B1B6843F010031360DE
:10015C00032000F005F9002000F008F802F05CFB29
:10016C000023184680BD00BF0020024080B582B03D
:10017C0000AF7860124B1A68124B1B7819464FF47B
:10018C007A73B3FBF1F3B2FBF3F3184600F00FF9FB
:10019C000346002B01D001230EE07B680F2B0AD8FD
:1001AC00002279684FF0FF3000F0E5F8064A7B68D2
:1001BC001360002300E0012318460837BD4680BDBC
:1001CC0008000020040000200000002080B400AFD4
:1001DC00054B1B781A46054B1B681344034A1360E6
:1001EC0000BFBD4680BC70470400002028000020E2
:1001FC0080B400AF024B1B681846BD4680BC7047EC
:10020C002800002080B485B000AF78607B6803F0D4
:10021C000703FB600C4BDB68BB60BA684FF6FF034F
:10022C001340BB60FB681A02BB68134343F0BF6307
:10023C0043F40033BB60044ABB68D36000BF14377F
:10024C00BD4680BC704700BF00ED00E080B400AF3D
:10025C00044BDB681B0A03F007031846BD4680BC41
:10026C00704700BF00ED00E080B483B000AF0346E0
:10027C003960FB7197F90730002B0ADB0D4997F9B0
:10028C0007303A68D2B21201D2B20B4483F8002381
:10029C000AE00949FB7903F00F03043B3A68D2B238
:1002AC001201D2B20B441A7600BF0C37BD4680BC8B
:1002BC00704700BF00E100E000ED00E080B489B0C1
:1002CC0000AFF860B9607A60FB6803F00703FB616C
:1002DC00FB69C3F10703042B28BF0423BB61FB6933
:1002EC000433062B02D9FB69033B00E000237B613E
:1002FC000122BB6902FA03F35A1EBB681A407B69E0
:10030C009A4001217B6901FA03F3591E7B680B406B
:10031C00134318462437BD4680BC704780B582B065
:10032C0000AF78607B68013BB3F1807F01D3012380
:10033C000FE00A4A7B68013B53600F214FF0FF30FE
:10034C00FFF792FF054B00229A60044B07221A60BC
:10035C00002318460837BD4680BD00BF10E000E002
:10036C0080B582B000AF78607868FFF74BFF00BFB4
:10037C000837BD4680BD80B586B000AF0346B96076
:10038C007A60FB7300237B61FFF760FF78617A680A
:10039C00B9687869FFF792FF024697F90F3011465A
:1003AC001846FFF761FF00BF1837BD4680BD80B50A
:1003BC0082B000AF78607868FFF7B0FF034618464C
:1003CC000837BD4680BD000080B48BB000AF7860AC
:1003DC00396000237B6200233B6227E101227B6AA8
:1003EC0002FA03F3FB613B681A68FB691340BB61BB
:1003FC00BA69FB699A4240F016813B685B68122B24
:10040C0034D0122B0DD8022B2BD0022B04D8002B5E
:10041C0031D0012B1CD048E0032B43D0112B1BD027
:10042C0043E0894A934226D0874A934206D8874AAA
:10043C00934220D0864A93421DD036E0854A93429F
:10044C0019D0854A934216D0844A934213D02CE09B
:10045C003B68DB683B6228E03B68DB6804333B624B
:10046C0023E03B68DB6808333B621EE03B68DB68DB
:10047C000C333B6219E03B689B68002B02D10423D0
:10048C003B6212E03B689B68012B05D108233B6261
:10049C007B68FA691A6108E008233B627B68FA6999
:1004AC005A6102E000233B6200BFBB69FF2B01D8FD
:1004BC007B6801E07B6804337B61BB69FF2B02D84E
:1004CC007B6A9B0002E07B6A083B9B003B617B697B
:1004DC001A680F213B6901FA03F3DB431A40396AAE
:1004EC003B6901FA03F31A437B691A603B685B684A
:1004FC0003F08053002B00F09680594A584B9B69AF
:10050C0043F001039361564B9B6903F00103BB60FD
:10051C00BB68544A7B6A9B08023352F82330FB6059
:10052C007B6A03F003039B000F2202FA03F3DB4305
:10053C00FA681340FB607B684B4A934213D07B688C
:10054C004A4A93420DD07B68494A934207D07B6854
:10055C00484A934201D1032306E0042304E002231A
:10056C0002E0012300E000237A6A02F00302920009
:10057C009340FA681343FB603A497B6A9B08023349
:10058C00FA6841F823203B685B6803F48033002B46
:10059C0006D03949384B1A68BB6913430B6006E027
:1005AC003549354B1A68BB69DB4313400B603B681C
:1005BC005B6803F40033002B06D02F492E4B5A688E
:1005CC00BB6913434B6006E02B492B4B5A68BB6944
:1005DC00DB4313404B603B685B6803F48013002BD8
:1005EC0006D02549244B9A68BB6913438B6006E0FF
:1005FC002149214B9A68BB69DB4313408B603B68F4
:10060C005B6803F40013002B06D01B491A4BDA6805
:10061C00BB691343CB6006E01749174BDA68BB691B
:10062C00DB431340CB607B6A01337B623B681A6807
:10063C007B6A22FA03F3002B7FF4D0AE00BF2C3779
:10064C00BD4680BC704700BF000021100000111097
:10065C0000001210000031100000321000002210B7
:10066C00001002400000014000080140000C014055
:10067C0000100140001401400004014090B585B009
:10068C0000AF78607B68002B01D101230FE17B6800
:10069C0093F83D30DBB2002B06D17B68002283F847
:1006AC003C20786802F0EAF87B68242283F83D202D
:1006BC007B681B687A681268126822F001021A6063
:1006CC0001F030FCF8607B685B687B4A934207D88A
:1006DC00FB687A4A934294BF01230023DBB206E005
:1006EC00FB68774A934294BF01230023DBB2002BB3
:1006FC0001D00123DBE0FB68724AA2FB03239B0CB5
:10070C00BB607B681B687A681268526822F03F01F4
:10071C00BA680A435A607B681A687B681B681B6A54
:10072C0023F03F017B685B686348834202D8BB6857
:10073C00013309E0BB684FF4967000FB03F3624889
:10074C00A0FB03039B0901330B4313627B681868FE
:10075C007B681B68DB6923F44F4222F0FF027B6845
:10076C005B6855498B420DD8FB68591E7B685B68EA
:10077C005B00B1FBF3F30133C3F30B03042B38BF62
:10078C0004234FE07B689B68002B11D1FB685C1E37
:10079C007B6859680B465B000B44B4FBF3F30133E5
:1007AC00C3F30B03002B0CBF01230023DBB212E0BD
:1007BC00FB685C1E7B6859680B469B000B449900D8
:1007CC000B44B4FBF3F30133C3F30B03002B0CBF4B
:1007DC0001230023DBB2002B01D0012322E07B6834
:1007EC009B68002B0ED1FB685C1E7B6859680B461E
:1007FC005B000B44B4FBF3F30133C3F30B0343F47F
:10080C0000430FE0FB685C1E7B6859680B469B003D
:10081C000B4499000B44B4FBF3F30133C3F30B0308
:10082C0043F440431343C3617B681B687A681268C6
:10083C00126822F0C0017A68D0697A68126A0243A1
:10084C000A431A607B681A687B681B689B6823F4F0
:10085C00034323F0FF03796808697968C968014389
:10086C000B4393607B681B687A681268D26822F02D
:10087C00FF017A6850697A68926902430A43DA6028
:10088C007B681B687A681268126842F001021A6071
:10089C007B6800221A647B68202283F83D207B68E9
:1008AC0000221A637B68002283F83E20002318463E
:1008BC001437BD4690BD00BFA08601007F841E008A
:1008CC00FF083D0083DE1B43D34D621080B588B01A
:1008DC0002AFF8607A601A460B467B8113463B8167
:1008EC00FFF786FC7861FB6893F83D30DBB2202B78
:1008FC0040F0E0807B690093192301227049F8686D
:10090C0000F05EFD0346002B01D00223D3E0FB6810
:10091C0093F83C30012B01D10223CCE0FB6801227F
:10092C0083F83C20FB681B681B6803F00103012B58
:10093C0007D0FB681B68FA681268126842F0010263
:10094C001A60FB681B68FA681268126822F400626D
:10095C001A60FB68212283F83D20FB68102283F883
:10096C003E20FB6800221A64FB687A685A62FB68B6
:10097C003A895A85FB685B8D9AB2FB681A85FB68CD
:10098C00504ADA6279897B693A6AF86800F0ECFBC4
:10099C000346002B01D001238DE000233B61FB6853
:1009AC001B685B693B61FB681B689B693B613B692E
:1009BC0066E07A69396AF86800F0D8FD0346002BC6
:1009CC000DD0FB681B6C042B07D1FB681B68FA6805
:1009DC001268126842F400721A6001236BE0FB6823
:1009EC001B68FA68526A12781A61FB685B6A5A1CB7
:1009FC00FB685A62FB685B8D9BB2013B9AB2FB6849
:100A0C005A85FB681B8D013B9AB2FB681A85FB6803
:100A1C001B685B6903F00403042B1BD1FB681B8D63
:100A2C00002B17D0FB681B68FA68526A12781A619F
:100A3C00FB685B6A5A1CFB685A62FB685B8D9BB255
:100A4C00013B9AB2FB685A85FB681B8D013B9AB23D
:100A5C00FB681A857A69396AF86800F0C8FD0346A4
:100A6C00002B0DD0FB681B6C042B07D1FB681B689B
:100A7C00FA681268126842F400721A6001231AE0D4
:100A8C00FB681B8D002B94D1FB681B68FA681268FD
:100A9C00126842F400721A60FB68202283F83D2031
:100AAC00FB68002283F83E20FB68002283F83C2080
:100ABC00002300E0022318461837BD4680BD00BF56
:100ACC00020010000000FFFF80B58CB002AFF86090
:100ADC007A601A460B467B8113463B81FFF788FBF5
:100AEC007862FB6893F83D30DBB2202B40F0138228
:100AFC007B6A0093192301227E49F86800F060FCA0
:100B0C000346002B01D0022306E2FB6893F83C302D
:100B1C00012B01D10223FFE1FB68012283F83C2069
:100B2C00FB681B681B6803F00103012B07D0FB68F3
:100B3C001B68FA681268126842F001021A60FB68BE
:100B4C001B68FA681268126822F400621A60FB686B
:100B5C00222283F83D20FB68102283F83E20FB689C
:100B6C0000221A64FB687A685A62FB683A895A85D3
:100B7C00FB685B8D9AB2FB681A85FB685E4ADA6289
:100B8C0079897B6A3A6BF86800F064FB0346002BAA
:100B9C0001D00123C0E1FB681B8D002B13D1002376
:100BAC003B62FB681B685B693B62FB681B689B696B
:100BBC003B623B6AFB681B68FA681268126842F475
:100BCC0000721A6094E1FB681B8D012B1DD1FB6830
:100BDC001B68FA681268126822F480621A6072B696
:100BEC000023FB61FB681B685B69FB61FB681B688E
:100BFC009B69FB61FB69FB681B68FA6812681268E9
:100C0C0042F400721A6062B672E1FB681B8D022B13
:100C1C001DD1FB681B68FA681268126842F4006206
:100C2C001A6072B60023BB61FB681B685B69BB6111
:100C3C00FB681B689B69BB61BB69FB681B68FA6836
:100C4C001268126822F480621A6062B650E1FB6886
:100C5C001B68FA681268126842F480621A600023FA
:100C6C007B61FB681B685B697B61FB681B689B692C
:100C7C007B617B693CE1FB681B8D032B00F2F580EB
:100C8C00FB681B8D012B23D17A6A396BF86800F055
:100C9C00EFFC0346002B01D001233DE1FB685B6AAE
:100CAC00FA6812681269D2B21A70FB685B6A5A1C35
:100CBC00FB685A62FB681B8D013B9AB2FB681A8574
:100CCC00FB685B8D9BB2013B9AB2FB685A850FE1C6
:100CDC00FB681B8D022B50D17B6A00933B6B00226F
:100CEC000649F86800F06CFB0346002B08D0012382
:100CFC0012E100BF020010000000FFFF0400010021
:100D0C0072B6FB681B68FA681268126842F40072CB
:100D1C001A60FB685B6AFA6812681269D2B21A70C0
:100D2C00FB685B6A5A1CFB685A62FB681B8D013BB3
:100D3C009AB2FB681A85FB685B8D9BB2013B9AB239
:100D4C00FB685A8562B6FB685B6AFA6812681269BE
:100D5C00D2B21A70FB685B6A5A1CFB685A62FB6859
:100D6C001B8D013B9AB2FB681A85FB685B8D9BB2AD
:100D7C00013B9AB2FB685A85BAE07B6A00933B6BE5
:100D8C0000226749F86800F01BFB0346002B01D0DA
:100D9C000123C1E0FB681B68FA681268126822F430
:100DAC0080621A6072B6FB685B6AFA681268126934
:100DBC00D2B21A70FB685B6A5A1CFB685A62FB68F9
:100DCC001B8D013B9AB2FB681A85FB685B8D9BB24D
:100DDC00013B9AB2FB685A857B6A00933B6B0022FD
:100DEC004F49F86800F0ECFA0346002B01D00123C0
:100DFC0092E0FB681B68FA681268126842F4007291
:100E0C001A60FB685B6AFA6812681269D2B21A70CF
:100E1C00FB685B6A5A1CFB685A62FB681B8D013BC2
:100E2C009AB2FB681A85FB685B8D9BB2013B9AB248
:100E3C00FB685A8562B6FB685B6AFA6812681269CD
:100E4C00D2B21A70FB685B6A5A1CFB685A62FB6868
:100E5C001B8D013B9AB2FB681A85FB685B8D9BB2BC
:100E6C00013B9AB2FB685A8542E07A6A396BF868A2
:100E7C0000F0FEFB0346002B01D001234CE0FB6885
:100E8C005B6AFA6812681269D2B21A70FB685B6A04
:100E9C005A1CFB685A62FB681B8D013B9AB2FB68BB
:100EAC001A85FB685B8D9BB2013B9AB2FB685A8535
:100EBC00FB681B685B6903F00403042B18D1FB6807
:100ECC005B6AFA6812681269D2B21A70FB685B6AC4
:100EDC005A1CFB685A62FB681B8D013B9AB2FB687B
:100EEC001A85FB685B8D9BB2013B9AB2FB685A85F5
:100EFC00FB681B8D002B7FF4BEAEFB68202283F8B1
:100F0C003D20FB68002283F83E20FB68002283F81A
:100F1C003C20002300E0022318462837BD4680BD44
:100F2C000400010080B58AB002AFF8607A603B60C3
:100F3C000B467B81FFF75CF9F8610123BB61FB6811
:100F4C0093F83D30DBB2202B40F00481FB69009319
:100F5C00192301228249F86800F032FA0346002B6B
:100F6C0001D00223F7E0FB6893F83C30012B01D150
:100F7C000223F0E0FB68012283F83C20FB681B682D
:100F8C001B6803F00103012B07D0FB681B68FA6890
:100F9C001268126842F001021A60FB681B68FA685A
:100FAC001268126822F400621A60FB68242283F82B
:100FBC003D20FB6800221A64FB686A4ADA62FB680F
:100FCC001B68FA681268126842F480721A60FB6936
:100FDC0000933B6800224FF00111F86800F0F0F923
:100FEC000346002B01D00123B5E0FB681B687A890E
:100FFC00D2B202F0FE021A61FFF7FAF8F861FB6850
:10100C001B685B6903F00203022B0CBF0123002356
:10101C00DBB2FB75FB681B685B6903F48063B3F59B
:10102C00806F0CBF01230023DBB2BB7525E0FFF7FB
:10103C00DFF80246FB69D21A3B689A4202D83B6839
:10104C00002B03D1FB68A02283F83D20FB681B68B2
:10105C005B6903F00203022B0CBF01230023DBB2FC
:10106C00FB75FB681B685B6903F48063B3F5806FE9
:10107C000CBF01230023DBB2BB75FB6893F83D303A
:10108C00DBB2A02B05D0FB7D002B02D1BB7D002B4E
:10109C00CDD0FB68202283F83D20FB681B685B6980
:1010AC0003F00203022B29D1FB681B68FA68126853
:1010BC00126842F400721A6000233B61FB681B68E3
:1010CC005B693B61FB681B689B693B613B69FB6926
:1010DC000093192301222249F86800F071F90346A4
:1010EC00002B01D0012336E0FB68202283F83D2041
:1010FC00FB68002283F83C2000232CE0FB681B6873
:10110C00FA681268126842F400721A60FB681B6875
:10111C006FF480625A61FB69009319230122104914
:10112C00F86800F04DF90346002B01D0012312E0C2
:10113C00BB690133BB61BA697B689A42FFF43FAF6C
:10114C00FB68202283F83D20FB68002283F83C20BA
:10115C00012300E0022318462037BD4680BD00BFA6
:10116C00020010000000FFFF80B588B002AFF860ED
:10117C007A603B600B467B81FB68DB6A7B617B6939
:10118C00082B06D07B69012B03D07B6913F5803FBC
:10119C0008D1FB681B68FA681268126842F4807206
:1011AC001A600BE0FB681B6B122B07D1FB681B68EA
:1011BC00FA681268126842F480721A603B680093F5
:1011CC007B6800224FF00111F86800F0F9F8034633
:1011DC00002B01D0012334E0FB681B69B3F5804F71
:1011EC0007D1FB681B687A89D2B202F0FE021A6141
:1011FC001BE0FB681B687A89D211D2B202F006029E
:10120C00D2B262F00F02D2B21A613B687A680F490F
:10121C00F86800F02CF90346002B01D0012310E0F4
:10122C00FB681B687A89D2B21A613B687A680849F4
:10123C00F86800F01CF90346002B01D0012300E0F4
:10124C00002318461837BD4680BD00BF08000100BA
:10125C000200010080B588B002AFF8607A603B6094
:10126C000B467B81FB68DB6A7B61FB681B68FA6859
:10127C001268126842F480621A607B69082B06D0EF
:10128C007B69012B03D07B6913F5803F08D1FB6888
:10129C001B68FA681268126842F480721A600BE0DC
:1012AC00FB681B6B112B07D1FB681B68FA68126873
:1012BC00126842F480721A603B6800937B680022CB
:1012CC004FF00111F86800F07BF80346002B01D0B9
:1012DC0001236DE0FB681B69B3F5804F08D1FB68F7
:1012EC001B687A89D2B242F00102D2B21A6153E081
:1012FC00FB681B687A89D211D2B202F00602D2B214
:10130C0062F00F02D2B21A613B687A682A49F86817
:10131C0000F0ADF80346002B01D0012348E0FB6838
:10132C001B687A89D2B21A613B687A682349F868DB
:10133C0000F09DF80346002B01D0012338E0002378
:10134C003B61FB681B685B693B61FB681B689B69C5
:10135C003B613B69FB681B68FA681268126842F4CF
:10136C0080721A603B6800937B6800224FF0011179
:10137C00F86800F025F80346002B01D0012317E094
:10138C00FB681B687A89D211D2B202F00602D2B283
:10139C0062F00E02D2B21A613B687A680749F868AB
:1013AC0000F065F80346002B01D0012300E0002378
:1013BC0018461837BD4680BD080001000200010028
:1013CC0080B584B000AFF860B9603B601346FB7128
:1013DC0025E03B68B3F1FF3F21D0FEF709FF024641
:1013EC00BB69D21A3B689A4202D83B68002B16D1D3
:1013FC00FB6800221A63FB68202283F83D20FB68FF
:10140C00002283F83E20FB681B6C43F02002FB6833
:10141C001A64FB68002283F83C20012323E0BB689C
:10142C001B0CDBB2012B0DD1FB681B685B69DA432B
:10143C00BB6813409BB2002B0CBF01230023DBB213
:10144C001A460CE0FB681B689B69DA43BB681340C7
:10145C009BB2002B0CBF01230023DBB21A46FB7995
:10146C009A42B6D0002318461037BD4680BD80B5D1
:10147C0084B000AFF860B9607A603B6051E0FB6803
:10148C001B685B6903F48063B3F5806F23D1FB6841
:10149C001B68FA681268126842F400721A60FB68E2
:1014AC001B686FF480625A61FB6800221A63FB6848
:1014BC00202283F83D20FB68002283F83E20FB6845
:1014CC001B6C43F00402FB681A64FB68002283F86F
:1014DC003C20012346E07B68B3F1FF3F21D0FEF7AF
:1014EC0087FE02463B68D21A7B689A4202D87B6818
:1014FC00002B16D1FB6800221A63FB68202283F8AC
:10150C003D20FB68002283F83E20FB681B6C43F0F7
:10151C002002FB681A64FB68002283F83C2001233C
:10152C0020E0BB681B0CDBB2012B0CD1FB681B68E9
:10153C005B69DA43BB6813409BB2002B14BF0123D9
:10154C000023DBB20BE0FB681B689B69DA43BB68CA
:10155C0013409BB2002B14BF01230023DBB2002BE2
:10156C008DD1002318461037BD4680BD80B584B0A0
:10157C0000AFF860B9607A602DE0F86800F0CEF842
:10158C000346002B01D001232DE0BB68B3F1FF3FD4
:10159C0021D0FEF72DFE02467B68D21ABB689A4218
:1015AC0002D8BB68002B16D1FB6800221A63FB68BB
:1015BC00202283F83D20FB68002283F83E20FB6844
:1015CC001B6C43F02002FB681A64FB68002283F852
:1015DC003C20012307E0FB681B685B6903F0800378
:1015EC00802BCAD1002318461037BD4680BD80B56C
:1015FC0084B000AFF860B9607A602DE0F86800F054
:10160C008DF80346002B01D001232DE0BB68B3F10C
:10161C00FF3F21D0FEF7ECFD02467B68D21ABB6877
:10162C009A4202D8BB68002B16D1FB6800221A63C1
:10163C00FB68202283F83D20FB68002283F83E20C3
:10164C00FB681B6C43F02002FB681A64FB680022E9
:10165C0083F83C20012307E0FB681B685B6903F0FF
:10166C000403042BCAD1002318461037BD4680BD95
:10167C0080B584B000AFF860B9607A6042E0FB6876
:10168C001B685B6903F01003102B19D1FB681B68F6
:10169C006FF010025A61FB6800221A63FB6820226B
:1016AC0083F83D20FB68002283F83E20FB681A6C0F
:1016BC00FB681A64FB68002283F83C20012329E0B4
:1016CC00FEF796FD02467B68D21ABB689A4202D896
:1016DC00BB68002B16D1FB6800221A63FB68202222
:1016EC0083F83D20FB68002283F83E20FB681B6CCE
:1016FC0043F02002FB681A64FB68002283F83C204C
:10170C00012307E0FB681B685B6903F04003402B77
:10171C00B5D1002318461037BD4680BD80B483B0C8
:10172C0000AF78607B681B685B6903F48063B3F57A
:10173C00806F1BD17B681B686FF480625A617B6879
:10174C0000221A637B68202283F83D207B680022EC
:10175C0083F83E207B681B6C43F004027B681A64A0
:10176C007B68002283F83C20012300E0002318460C
:10177C000C37BD4680BC704780B586B000AF786032
:10178C007B68002B01D101236CE27B681B6803F0A2
:10179C000103002B00F08780924B5B6803F00C0375
:1017AC00042B0CD08F4B5B6803F00C03082B12D16D
:1017BC008C4B5B6803F48033B3F5803F0BD1894BC2
:1017CC001B6803F40033002B6CD07B685B68002B28
:1017DC0068D1012346E27B685B68B3F5803F06D194
:1017EC00804A804B1B6843F4803313602EE07B6887
:1017FC005B68002B0CD17B4A7A4B1B6823F480333B
:10180C001360784A774B1B6823F4802313601DE028
:10181C007B685B68B3F5A02F0CD1724A714B1B68C7
:10182C0043F4802313606F4A6E4B1B6843F4803380
:10183C0013600BE06B4A6B4B1B6823F48033136013
:10184C00684A684B1B6823F4802313607B685B68D1
:10185C00002B13D0FEF7CCFC386108E0FEF7C8FC77
:10186C0002463B69D31A642B01D90323FAE15D4B81
:10187C001B6803F40033002BF0D014E0FEF7B8FC27
:10188C00386108E0FEF7B4FC02463B69D31A642BBE
:10189C0001D90323E6E1534B1B6803F40033002BFF
:1018AC00F0D100E000BF7B681B6803F00203002B43
:1018BC0063D04C4B5B6803F00C03002B0BD0494BF3
:1018CC005B6803F00C03082B1CD1464B5B6803F4DC
:1018DC008033002B16D1434B1B6803F00203002B03
:1018EC0005D07B681B69012B01D00123BAE13D496E
:1018FC003C4B1B6823F0F8027B685B69DB001343ED
:10190C000B603AE07B681B69002B20D0364B012220
:10191C001A60FEF76DFC386108E0FEF769FC0246C0
:10192C003B69D31A022B01D903239BE12D4B1B6876
:10193C0003F00203002BF0D02A492A4B1B6823F03A
:10194C00F8027B685B69DB0013430B6015E0264BE8
:10195C0000221A60FEF74CFC386108E0FEF748FCE8
:10196C0002463B69D31A022B01D903237AE11D4BA2
:10197C001B6803F00203002BF0D17B681B6803F09B
:10198C000803002B3AD07B689B69002B19D0174BAE
:10199C0001221A60FEF72CFC386108E0FEF728FCE7
:1019AC0002463B69D31A022B01D903235AE10D4B92
:1019BC005B6A03F00203002BF0D0012000F0DAFA8E
:1019CC001CE00A4B00221A60FEF712FC38610FE093
:1019DC00FEF70EFC02463B69D31A022B08D90323EF
:1019EC0040E100BF0010024000004242800442422D
:1019FC009E4B5B6A03F00203002BE9D17B681B68EA
:101A0C0003F00403002B00F0A6800023FB75974B1A
:101A1C00DB6903F08053002B0DD1944A934BDB69A7
:101A2C0043F08053D361914BDB6903F08053BB606F
:101A3C00BB680123FB758E4B1B6803F48073002B72
:101A4C0018D18B4A8A4B1B6843F480731360FEF7E2
:101A5C00CFFB386108E0FEF7CBFB02463B69D31A9B
:101A6C00642B01D90323FDE0814B1B6803F48073C5
:101A7C00002BF0D07B68DB68012B06D17B4A7B4BBB
:101A8C001B6A43F0010313622DE07B68DB68002BBB
:101A9C000CD1764A754B1B6A23F001031362734A0F
:101AAC00724B1B6A23F0040313621CE07B68DB6837
:101ABC00052B0CD16D4A6D4B1B6A43F0040313626A
:101ACC006A4A6A4B1B6A43F0010313620BE0674AD4
:101ADC00664B1B6A23F001031362644A634B1B6A57
:101AEC0023F0040313627B68DB68002B15D0FEF730
:101AFC007FFB38610AE0FEF77BFB02463B69D31A99
:101B0C0041F28832934201D90323ABE0574B1B6A55
:101B1C0003F00203002BEED014E0FEF769FB3861F2
:101B2C000AE0FEF765FB02463B69D31A41F28832A4
:101B3C00934201D9032395E04C4B1B6A03F002033B
:101B4C00002BEED1FB7D012B05D1484A474BDB69BD
:101B5C0023F08053D3617B68DB69002B00F081801C
:101B6C00424B5B6803F00C03082B61D07B68DB698C
:101B7C00022B46D13F4B00221A60FEF739FB38612D
:101B8C0008E0FEF735FB02463B69D31A022B01D95C
:101B9C00032367E0354B1B6803F00073002BF0D177
:101BAC007B681B6AB3F5803F08D130492F4B5B68CB
:101BBC0023F400327B689B6813434B602B482B4B00
:101BCC005B6823F474127B68196A7B685B6A0B434D
:101BDC0013434360274B01221A60FEF709FB38615F
:101BEC0008E0FEF705FB02463B69D31A022B01D92C
:101BFC00032337E01D4B1B6803F00073002BF0D060
:101C0C002FE01C4B00221A60FEF7F2FA386108E054
:101C1C00FEF7EEFA02463B69D31A022B01D90323D5
:101C2C0020E0124B1B6803F00073002BF0D118E07E
:101C3C007B68DB69012B01D1012313E00B4B5B6843
:101C4C00FB60FB6803F480327B681B6A9A4206D106
:101C5C00FB6803F470127B685B6A9A4201D0012323
:101C6C0000E0002318461837BD4680BD0010024026
:101C7C00007000406000424280B584B000AF7860D4
:101C8C0039607B68002B01D10123D0E06A4B1B68C3
:101C9C0003F007023B689A4210D26749664B1B68F7
:101CAC0023F007023B6813430B60634B1B6803F084
:101CBC0007023B689A4201D00123B8E07B681B689D
:101CCC0003F00203002B20D07B681B6803F0040395
:101CDC00002B05D0594A594B5B6843F4E0635360C1
:101CEC007B681B6803F00803002B05D0534A534B49
:101CFC005B6843F4605353605049504B5B6823F06E
:101D0C00F0027B689B6813434B607B681B6803F095
:101D1C000103002B40D07B685B68012B07D1474B3C
:101D2C001B6803F40033002B15D101237FE07B6883
:101D3C005B68022B07D1414B1B6803F00073002B2F
:101D4C0009D1012373E03D4B1B6803F00203002B08
:101D5C0001D101236BE03949384B5B6823F0030256
:101D6C007B685B6813434B60FEF742FAF8600AE04D
:101D7C00FEF73EFA0246FB68D31A41F288329342D0
:101D8C0001D9032353E02D4B5B6803F00C027B68F5
:101D9C005B689B009A42EBD1274B1B6803F0070250
:101DAC003B689A4210D92449234B1B6823F0070245
:101DBC003B6813430B60204B1B6803F007023B6826
:101DCC009A4201D0012332E07B681B6803F00403C4
:101DDC00002B08D01949194B5B6823F4E0627B682F
:101DEC00DB6813434B607B681B6803F00803002B14
:101DFC0009D01249114B5B6823F460527B681B6954
:101E0C00DB0013434B6000F021F801460B4B5B6881
:101E1C001B0903F00F030A4AD35C21FA03F3094AA6
:101E2C001360094B1B681846FEF7A0F900231846EF
:101E3C001037BD4680BD00BF00200240001002409C
:101E4C00B02B0008080000200000002090B48AB0DD
:101E5C0000AF2A4B3C1D0FCB84E80F00284B1B888E
:101E6C003B800023FB610023BB6100237B620023CA
:101E7C007B6100233B62234B5B68FB61FB6903F0D6
:101E8C000C03042B02D0082B03D02DE01E4B3B621D
:101E9C002DE0FB699B0C03F00F0307F128021344A0
:101EAC0013F8243C7B61FB6903F48033002B13D0C3
:101EBC00144B5B685B0C03F0010307F1280213441D
:101ECC0013F8283CBB617B690F4A02FB03F2BB6928
:101EDC00B2FBF3F37B6204E07B690C4A02FB03F375
:101EEC007B627B6A3B6202E0074B3B6200BF3B6A52
:101EFC0018462837BD4690BC704700BF702B0008B1
:101F0C00802B00080010024000127A0000093D00EE
:101F1C0080B400AF024B1B681846BD4680BC7047AE
:101F2C000800002080B500AFFFF7F2FF0146054B1B
:101F3C005B681B0A03F00703034AD35C21FA03F323
:101F4C00184680BD00100240C02B000880B500AFC1
:101F5C00FFF7DEFF0146054B5B68DB0A03F0070366
:101F6C00034AD35C21FA03F3184680BD00100240EB
:101F7C00C02B000880B485B000AF78600A4B1B689A
:101F8C000A4AA2FB03235B0A7A6802FB03F3FB6099
:101F9C0000BFFB685A1EFA60002BF9D100BF143742
:101FAC00BD4680BC704700BF08000020D34D6210B6
:101FBC0080B582B000AF78607B68002B01D1012323
:101FCC003FE07B6893F83930DBB2002B06D17B689D
:101FDC00002283F83820786800F0BCFC7B6824224F
:101FEC0083F839207B681B687A681268D26822F4FF
:101FFC000052DA60786800F029F87B681B687A6810
:10200C001268126922F490421A617B681B687A6824
:10201C001268526922F02A025A617B681B687A683E
:10202C001268D26842F40052DA607B680022DA63EC
:10203C007B68202283F839207B68202283F83A20A1
:10204C00002318460837BD4680BD000090B585B00A
:10205C0000AF78607B681B687A681268126922F49A
:10206C0040517A68D2680A431A617B689A687B6827
:10207C001B691A437B685B691343FB607B681A68B6
:10208C007B681B68DB6823F4B05323F00C03F968FE
:10209C000B43D3607B681B687A681268526922F420
:1020AC0040717A6892690A435A617B681B68524A8C
:1020BC0093424ED1FFF74AFFB8607B681968BA6843
:1020CC0013469B0013449A001A447B685B689B0080
:1020DC00B2FBF3F3494AA2FB03235B091801BA686C
:1020EC0013469B0013449A001A447B685B689B0060
:1020FC00B2FBF3F2414BA3FB02435B09642404FBE8
:10210C0003F3D31A1B0132333C4AA2FB03235B09B2
:10211C0003F0F0031844BA6813469B0013449A006A
:10212C001A447B685B689B00B2FBF3F2334BA3FB56
:10213C0002435B09642404FB03F3D31A1B013233FF
:10214C002E4AA2FB03235B0903F00F0303448B60AD
:10215C004DE0FFF7E7FEB8607B681968BA68134674
:10216C009B0013449A001A447B685B689B00B2FB8B
:10217C00F3F3224AA2FB03235B091801BA68134646
:10218C009B0013449A001A447B685B689B00B2FB6B
:10219C00F3F21A4BA3FB02435B09642404FB03F325
:1021AC00D31A1B013233154AA2FB03235B0903F03C
:1021BC00F0031844BA6813469B0013449A001A445F
:1021CC007B685B689B00B2FBF3F20C4BA3FB0243F6
:1021DC005B09642404FB03F3D31A1B013233074A53
:1021EC00A2FB03235B0903F00F0303448B6000BFC6
:1021FC001437BD4690BD00BF003801401F85EB5120
:10220C00B0B590B002AF264A07F1240392E8030060
:10221C0083E80300234B07F114040FCB07C423807E
:10222C0002341B0C2370204B3C461D460FCD0FC4B3
:10223C002B682370FDF784FF00F03CF800F0FCF8ED
:10224C0000F074F800F0A0F800F0CCF80023009334
:10225C00002300221549164800F016F9034687F8AA
:10226C00333000237B6316E07B6B9B0007F1380255
:10227C00134453F8143C0D49184600F083FA0B4BE9
:10228C005B8A3B86094B9B8AFB85084BDB8ABB85AB
:10229C007B6B01337B637B6B012BE5DDE1E700BFDF
:1022AC00842B00088C2B00089C2B000814010020A8
:1022BC002C00002080B590B000AF07F11803282245
:1022CC000021184600F03AFC3B1D00221A605A60AF
:1022DC009A60DA601A610223BB610123BB6210238E
:1022EC00FB6200237B6307F118031846FFF744FADF
:1022FC000346002B01D000F0C1F80F237B600023B4
:10230C00BB600023FB6000233B6100237B613B1D12
:10231C0000211846FFF7B0FC0346002B01D000F05B
:10232C00ADF800BF4037BD4680BD000080B500AFA2
:10233C00124B134A1A60114B124A5A600F4B00226F
:10234C009A600E4B0022DA600C4B4FF480421A61FB
:10235C000A4B00225A61094B00229A61074B00225A
:10236C00DA61064B00221A620448FEF787F903462D
:10237C00002B01D000F082F800BF80BD2C000020A3
:10238C0000540040A086010080B500AF124B134AE8
:10239C001A60114B124A5A600F4B00229A600E4B76
:1023AC000022DA600C4B4FF480421A610A4B002277
:1023BC005A61094B00229A61074B0022DA61064BE5
:1023CC0000221A620448FEF759F90346002B01D08B
:1023DC0000F054F800BF80BD800000200058004081
:1023EC00A086010080B500AF114B124A1A60104B49
:1023FC004FF4E1325A600E4B00229A600C4B0022D3
:10240C00DA600B4B00221A61094B0C225A61084B03
:10241C0000229A61064B0022DA610548FFF7C8FDDD
:10242C000346002B01D000F029F800BF80BD00BF8F
:10243C00D40000200038014080B483B000AF0E4AB5
:10244C000D4B9B6943F0080393610B4B9B6903F0A5
:10245C0008037B607B68084A074B9B6943F00403C5
:10246C009361054B9B6903F004033B603B6800BF21
:10247C000C37BD4680BC70470010024080B400AFE2
:10248C0000BFBD4680BC704780B58AB002AFF86013
:10249C00B96011461A460B46FB711346BB71752386
:1024AC00BB76FB68FB61FB7963F02F03DAB2BB6888
:1024BC001A70BB681B78FB76FB7E99B2052302224F
:1024CC00F869FEF72FFD0346002B01D001234CE0E9
:1024DC00FB7E99B207F11A024FF47A730093012331
:1024EC00F869FEF7F3F90346002B01D001233CE019
:1024FC00FB7E99B207F119024FF47A730093012312
:10250C00F869FEF7E1FA0346002B03D001232CE017
:10251C0003232AE000BF7B7E682BF9D16B233B752C
:10252C0000237B75FB7E99B207F114024FF47A738A
:10253C0000930223F869FEF7C9F90346002B01D07A
:10254C00012312E00722B968F86800F012F8BB7991
:10255C001A46B968F86800F031F897F828301A462E
:10256C00B968F86800F09AF8002318462037BD4681
:10257C0080BD80B588B002AFF860B9601346FB71BE
:10258C00FB687B61BB681B78FB7419233B74FB797C
:10259C007B7400BFFB7C99B207F110024FF47A7385
:1025AC00009302237869FEF791F90346002BF1D1D1
:1025BC00002318461837BD4680BD000080B588B092
:1025CC0002AFF860B9601346FB71FB687B61BB68B6
:1025DC001B78FB741C237B7400BFFB7C99B207F146
:1025EC0011024FF47A73009301237869FEF76EF9A8
:1025FC000346002BF1D100BFFB7C99B207F112020C
:10260C004FF47A73009301237869FEF75DFA034661
:10261C00002BF1D1BB7C5BB223F018035AB2FB79CF
:10262C00DB005BB213435BB2DBB2BB7400BFFB7C61
:10263C0099B207F112024FF47A730093012378696F
:10264C00FEF744F90346002BF1D1FB79032B1FD87D
:10265C0001A252F823F000BF752600087F2600085F
:10266C008926000893260008BB684FF062529A60D6
:10267C000FE0BB684FF064529A600AE0BB684FF001
:10268C0066529A6005E0BB684FF068529A6000E0B1
:10269C0000BF002318461837BD4680BD80B588B0F2
:1026AC0002AFF860B9601346FB71FB687B61BB68D5
:1026BC001B78FB741B237B7400BFFB7C99B207F166
:1026CC0011024FF47A73009301237869FEF7FEF838
:1026DC000346002BF1D100BFFB7C99B207F112022B
:1026EC004FF47A73009301237869FEF7EDF90346F2
:1026FC00002BF1D1BB7C5BB223F018035AB2FB79EF
:10270C00DB005BB213435BB2DBB2BB7400BFFB7C80
:10271C0099B207F112024FF47A730093012378698E
:10272C00FEF7D4F80346002BF1D1FB79032B1BD811
:10273C0001A252F823F000BF552700085D270008BE
:10274C00652700086D270008BB680A4A5A600CE030
:10275C00BB68094A5A6008E0BB68084A5A6004E042
:10276C00BB68074A5A6000E000BF002318461837C0
:10277C00BD4680BD2D23FA3B2D237A3C90C1F93CFC
:10278C0090C1793D80B588B002AF78603960432341
:10279C00FB727B687B613B681B78FB7400BFFB7C26
:1027AC0099B207F10B024FF47A7300930123786905
:1027BC00FEF78CF80346002BF1D100BFFB7C99B2DD
:1027CC0007F10C024FF47A73009306237869FEF735
:1027DC007BF90346002BF1D13B7B1B021AB27B7BAE
:1027EC001BB213431AB23B685A82BB7B1B021AB250
:1027FC00FB7B1BB213431AB23B689A823B7C1B02D5
:10280C001AB27B7C1BB213431AB23B68DA820023E8
:10281C0018461837BD4680BD80B485B000AF154A48
:10282C00144B9B6943F001039361124B9B6903F0BA
:10283C000103BB60BB680F4A0E4BDB6943F080534E
:10284C00D3610C4BDB6903F080537B607B680A4BD4
:10285C005B68FB60FB6823F0E063FB60FB6843F0A4
:10286C000073FB60044AFB68536000BF1437BD461D
:10287C0080BC7047001002400000014080B58AB057
:10288C0000AF786007F1180300221A605A609A6052
:10289C00DA607B681B682B4A934224D12A4A2A4B64
:1028AC009B6943F008039361274B9B6903F0080372
:1028BC007B617B69C023BB611223FB6103237B62B9
:1028CC0007F1180319462148FDF77EFD1E4A1E4BE1
:1028DC00DB6943F40013D3611B4BDB6903F4001376
:1028EC003B613B6929E07B681B68194A934224D100
:1028FC00154A154B9B6943F008039361124B9B6976
:10290C0003F00803FB60FB684FF44063BB611223C8
:10291C00FB6103237B6207F1180319460B48FDF793
:10292C0053FD094A084BDB6943F48003D361064B22
:10293C00DB6903F48003BB60BB6800BF2837BD466E
:10294C0080BD00BF0054004000100240000C01404C
:10295C000058004080B588B000AF786007F11003D4
:10296C0000221A605A609A60DA607B681B681C4A05
:10297C00934231D11B4A1B4B9B6943F480439361B7
:10298C00184B9B6903F48043FB60FB68154A154B9D
:10299C009B6943F004039361124B9B6903F004039E
:1029AC00BB60BB684FF400733B6102237B61032364
:1029BC00FB6107F1100319460B48FDF705FD4FF4B9
:1029CC0080633B6100237B610023BB6107F1100333
:1029DC0019460548FDF7F8FC00BF2037BD4680BD01
:1029EC0000380140001002400008014080B400AFE4
:1029FC0000BFBD4680BC704780B400AFFEE780B41A
:102A0C0000AFFEE780B400AFFEE780B400AFFEE796
:102A1C0080B400AF00BFBD4680BC704780B400AF2F
:102A2C0000BFBD4680BC704780B400AF00BFBD4640
:102A3C0080BC704780B500AFFDF7C8FB00BF80BD00
:102A4C0080B400AF154A154B1B6843F001031360AB
:102A5C001249124B5A68124B13404B600F4A0F4BE2
:102A6C001B6823F0847323F4803313600B4A0B4BE5
:102A7C001B6823F480231360084A084B5B6823F41B
:102A8C00FE035360054B4FF41F029A60054B4FF049
:102A9C0000629A6000BFBD4680BC704700100240C7
:102AAC000000FFF800ED00E0002103E00B4B5B5849
:102ABC00435004310A480B4B42189A42F6D30A4A47
:102ACC0002E0002342F8043B084B9A42F9D3FFF78B
:102ADC00B7FF00F00FF8FFF793FB7047D02B0008FF
:102AEC00000000200C0000200C0000203001002011
:102AFC00FEE7000070B500250C4E0D4CA41BA41075
:102B0C00A54209D100F022F800250A4E0A4CA41B5C
:102B1C00A410A54205D170BD56F825309847013553
:102B2C00EEE756F8253098470135F2E7C82B000838
:102B3C00C82B0008C82B0008CC2B00080346024405
:102B4C00934200D1704703F8011BF9E7F8B500BFB9
:102B5C00F8BC08BC9E467047F8B500BFF8BC08BC72
:042B6C009E467047CA
:102B700002030405060708090A0B0C0D0E0F1010BE
:102B8000010200002C000020800000204D50552044
:102B9000574F524B2046494E450A00004D50552094
:102BA0004E4F5420574F524B494E470A00000000E9
:102BB00000000000000000000102030406070809ED
:082BC000000000000102030403
:042BC80031010008CF
:042BCC000D010008EF
:0C2BD00010000000010000000024F400D0
:0400000508002AB510
:00000001FF
